{
  "contractName": "Evoting",
  "abi": [
    {
      "inputs": [],
      "stateMutability": "nonpayable",
      "type": "constructor"
    },
    {
      "inputs": [],
      "name": "admin",
      "outputs": [
        {
          "internalType": "address",
          "name": "",
          "type": "address"
        }
      ],
      "stateMutability": "view",
      "type": "function"
    },
    {
      "inputs": [
        {
          "internalType": "uint256",
          "name": "",
          "type": "uint256"
        }
      ],
      "name": "candidates",
      "outputs": [
        {
          "internalType": "uint256",
          "name": "id",
          "type": "uint256"
        },
        {
          "internalType": "string",
          "name": "name",
          "type": "string"
        },
        {
          "internalType": "uint256",
          "name": "voteCount",
          "type": "uint256"
        }
      ],
      "stateMutability": "view",
      "type": "function"
    },
    {
      "inputs": [],
      "name": "candidatesCount",
      "outputs": [
        {
          "internalType": "uint256",
          "name": "",
          "type": "uint256"
        }
      ],
      "stateMutability": "view",
      "type": "function"
    },
    {
      "inputs": [],
      "name": "totalVotes",
      "outputs": [
        {
          "internalType": "uint256",
          "name": "",
          "type": "uint256"
        }
      ],
      "stateMutability": "view",
      "type": "function"
    },
    {
      "inputs": [
        {
          "internalType": "address",
          "name": "",
          "type": "address"
        }
      ],
      "name": "voters",
      "outputs": [
        {
          "internalType": "bool",
          "name": "registered",
          "type": "bool"
        },
        {
          "internalType": "bool",
          "name": "voted",
          "type": "bool"
        },
        {
          "internalType": "address",
          "name": "delegate",
          "type": "address"
        },
        {
          "internalType": "uint256",
          "name": "vote",
          "type": "uint256"
        }
      ],
      "stateMutability": "view",
      "type": "function"
    },
    {
      "inputs": [
        {
          "internalType": "string",
          "name": "_name",
          "type": "string"
        }
      ],
      "name": "addCandidate",
      "outputs": [],
      "stateMutability": "nonpayable",
      "type": "function"
    },
    {
      "inputs": [
        {
          "internalType": "address",
          "name": "_voter",
          "type": "address"
        }
      ],
      "name": "registerVoter",
      "outputs": [],
      "stateMutability": "nonpayable",
      "type": "function"
    },
    {
      "inputs": [
        {
          "internalType": "uint256",
          "name": "_candidateId",
          "type": "uint256"
        }
      ],
      "name": "vote",
      "outputs": [],
      "stateMutability": "nonpayable",
      "type": "function"
    },
    {
      "inputs": [],
      "name": "getCandidates",
      "outputs": [
        {
          "components": [
            {
              "internalType": "uint256",
              "name": "id",
              "type": "uint256"
            },
            {
              "internalType": "string",
              "name": "name",
              "type": "string"
            },
            {
              "internalType": "uint256",
              "name": "voteCount",
              "type": "uint256"
            }
          ],
          "internalType": "struct Evoting.Candidate[]",
          "name": "",
          "type": "tuple[]"
        }
      ],
      "stateMutability": "view",
      "type": "function"
    },
    {
      "inputs": [],
      "name": "getResults",
      "outputs": [
        {
          "components": [
            {
              "internalType": "uint256",
              "name": "id",
              "type": "uint256"
            },
            {
              "internalType": "string",
              "name": "name",
              "type": "string"
            },
            {
              "internalType": "uint256",
              "name": "voteCount",
              "type": "uint256"
            }
          ],
          "internalType": "struct Evoting.Candidate[]",
          "name": "",
          "type": "tuple[]"
        }
      ],
      "stateMutability": "view",
      "type": "function"
    }
  ],
  "bytecode": "0x608060405234801561000f575f80fd5b505f80546001600160a01b03191633179055610b018061002e5f395ff3fe608060405234801561000f575f80fd5b506004361061009b575f3560e01c806338db6dd31161006357806338db6dd314610114578063462e91ec146101275780634717f97c1461013a578063a3ec138d14610142578063f851a440146101b9575f80fd5b80630121b93f1461009f57806306a49fce146100b45780630d15fd77146100d25780632d35a8a2146100e95780633477ee2e146100f2575b5f80fd5b6100b26100ad366004610749565b6101e3565b005b6100bc610320565b6040516100c991906107a3565b60405180910390f35b6100db60045481565b6040519081526020016100c9565b6100db60035481565b610105610100366004610749565b6104a1565b6040516100c993929190610822565b6100b261012236600461084a565b610549565b6100b261013536600461088b565b61067e565b6100bc61073a565b61018861015036600461084a565b600160208190525f9182526040909120805491015460ff80831692610100810490911691620100009091046001600160a01b03169084565b6040516100c99493929190931515845291151560208401526001600160a01b03166040830152606082015260800190565b5f546101cb906001600160a01b031681565b6040516001600160a01b0390911681526020016100c9565b335f908152600160205260409020805460ff166102395760405162461bcd60e51b815260206004820152600f60248201526e2737ba103932b3b4b9ba32b932b21760891b60448201526064015b60405180910390fd5b8054610100900460ff16156102815760405162461bcd60e51b815260206004820152600e60248201526d20b63932b0b23c903b37ba32b21760911b6044820152606401610230565b5f8211801561029257506003548211155b6102d35760405162461bcd60e51b815260206004820152601260248201527124b73b30b634b21031b0b73234b230ba329760711b6044820152606401610230565b805461ff001916610100178155600181018290555f8281526002602081905260408220018054916103038361094a565b909155505060048054905f6103178361094a565b91905055505050565b60605f60035467ffffffffffffffff81111561033e5761033e610877565b60405190808252806020026020018201604052801561039157816020015b61037e60405180606001604052805f8152602001606081526020015f81525090565b81526020019060019003908161035c5790505b50905060015b600354811161049b5760025f8281526020019081526020015f206040518060600160405290815f82015481526020016001820180546103d590610962565b80601f016020809104026020016040519081016040528092919081815260200182805461040190610962565b801561044c5780601f106104235761010080835404028352916020019161044c565b820191905f5260205f20905b81548152906001019060200180831161042f57829003601f168201915b505050505081526020016002820154815250508260018361046d9190610994565b8151811061047d5761047d6109ad565b602002602001018190525080806104939061094a565b915050610397565b50919050565b60026020525f9081526040902080546001820180549192916104c290610962565b80601f01602080910402602001604051908101604052809291908181526020018280546104ee90610962565b80156105395780601f1061051057610100808354040283529160200191610539565b820191905f5260205f20905b81548152906001019060200180831161051c57829003601f168201915b5050505050908060020154905083565b5f546001600160a01b0316331461059e5760405162461bcd60e51b815260206004820152601960248201527827b7363c9030b236b4b71031b0b71031b0b636103a3434b99760391b6044820152606401610230565b6001600160a01b0381165f9081526001602052604090205460ff16156105fc5760405162461bcd60e51b815260206004820152601360248201527220b63932b0b23c903932b3b4b9ba32b932b21760691b6044820152606401610230565b6040805160808101825260018082525f6020808401828152848601838152606086018481526001600160a01b0398891685529285905295909220935184549251955161ffff1990931690151561ff00191617610100951515959095029490941762010000600160b01b0319166201000091909516029390931781559051910155565b5f546001600160a01b031633146106d35760405162461bcd60e51b815260206004820152601960248201527827b7363c9030b236b4b71031b0b71031b0b636103a3434b99760391b6044820152606401610230565b60038054905f6106e28361094a565b90915550506040805160608101825260035480825260208083018581525f848601819052928352600290915292902081518155915190919060018201906107299082610a0f565b506040820151816002015590505050565b6060610744610320565b905090565b5f60208284031215610759575f80fd5b5035919050565b5f81518084525f5b8181101561078457602081850181015186830182015201610768565b505f602082860101526020601f19601f83011685010191505092915050565b5f6020808301818452808551808352604092508286019150828160051b8701018488015f5b8381101561081457603f19898403018552815160608151855288820151818a8701526107f682870182610760565b928901519589019590955250948701949250908601906001016107c8565b509098975050505050505050565b838152606060208201525f61083a6060830185610760565b9050826040830152949350505050565b5f6020828403121561085a575f80fd5b81356001600160a01b0381168114610870575f80fd5b9392505050565b634e487b7160e01b5f52604160045260245ffd5b5f6020828403121561089b575f80fd5b813567ffffffffffffffff808211156108b2575f80fd5b818401915084601f8301126108c5575f80fd5b8135818111156108d7576108d7610877565b604051601f8201601f19908116603f011681019083821181831017156108ff576108ff610877565b81604052828152876020848701011115610917575f80fd5b826020860160208301375f928101602001929092525095945050505050565b634e487b7160e01b5f52601160045260245ffd5b5f6001820161095b5761095b610936565b5060010190565b600181811c9082168061097657607f821691505b60208210810361049b57634e487b7160e01b5f52602260045260245ffd5b818103818111156109a7576109a7610936565b92915050565b634e487b7160e01b5f52603260045260245ffd5b601f821115610a0a575f81815260208120601f850160051c810160208610156109e75750805b601f850160051c820191505b81811015610a06578281556001016109f3565b5050505b505050565b815167ffffffffffffffff811115610a2957610a29610877565b610a3d81610a378454610962565b846109c1565b602080601f831160018114610a70575f8415610a595750858301515b5f19600386901b1c1916600185901b178555610a06565b5f85815260208120601f198616915b82811015610a9e57888601518255948401946001909101908401610a7f565b5085821015610abb57878501515f19600388901b60f8161c191681555b5050505050600190811b0190555056fea26469706673582212206c0ef2873815ba531f65c43d0ba4424e6fea76f1e4d3f93693a98d08c191906664736f6c63430008150033",
  "immutableReferences": {},
  "source": "// SPDX-License-Identifier: MIT\npragma solidity ^0.8.21;\n\ncontract Evoting {\n    struct Voter {\n        bool registered;\n        bool voted;\n        address delegate;\n        uint vote;\n    }\n\n    struct Candidate {\n        uint id;\n        string name;\n        uint voteCount;\n    }\n\n    address public admin;\n    mapping(address => Voter) public voters;\n    mapping(uint => Candidate) public candidates;\n    uint public candidatesCount;\n    uint public totalVotes;\n\n    modifier onlyAdmin() {\n        require(msg.sender == admin, \"Only admin can call this.\");\n        _;\n    }\n\n    constructor() {\n        admin = msg.sender;\n    }\n\n    function addCandidate(string memory _name) public onlyAdmin {\n        candidatesCount++;\n        candidates[candidatesCount] = Candidate(candidatesCount, _name, 0);\n    }\n\n    function registerVoter(address _voter) public onlyAdmin {\n        require(!voters[_voter].registered, \"Already registered.\");\n        voters[_voter] = Voter(true, false, address(0), 0);\n    }\n\n    function vote(uint _candidateId) public {\n        Voter storage sender = voters[msg.sender];\n        require(sender.registered, \"Not registered.\");\n        require(!sender.voted, \"Already voted.\");\n        require(_candidateId > 0 && _candidateId <= candidatesCount, \"Invalid candidate.\");\n\n        sender.voted = true;\n        sender.vote = _candidateId;\n        candidates[_candidateId].voteCount++;\n        totalVotes++;\n    }\n\n    function getCandidates() public view returns (Candidate[] memory) {\n        Candidate[] memory result = new Candidate[](candidatesCount);\n        for (uint i = 1; i <= candidatesCount; i++) {\n            result[i - 1] = candidates[i];\n        }\n        return result;\n    }\n\n    function getResults() public view returns (Candidate[] memory) {\n        return getCandidates();\n    }\n}\n",
  "sourcePath": "E:\\Projects\\evoting-system-master\\evoting-system-master\\contracts\\Evoting.sol",
  "compiler": {
    "name": "solc",
    "version": "0.8.21+commit.d9974bed.Emscripten.clang"
  },
  "schemaVersion": "3.4.16",
  "updatedAt": "2025-04-10T17:49:17.686Z",
  "devdoc": {
    "kind": "dev",
    "methods": {},
    "version": 1
  },
  "userdoc": {
    "kind": "user",
    "methods": {},
    "version": 1
  }
}