{
  "_format": "hh-sol-artifact-1",
  "contractName": "Evoting",
  "sourceName": "contracts/Evoting.sol",
  "abi": [
    {
      "inputs": [],
      "stateMutability": "nonpayable",
      "type": "constructor"
    },
    {
      "inputs": [
        {
          "internalType": "string",
          "name": "_name",
          "type": "string"
        }
      ],
      "name": "addCandidate",
      "outputs": [],
      "stateMutability": "nonpayable",
      "type": "function"
    },
    {
      "inputs": [],
      "name": "admin",
      "outputs": [
        {
          "internalType": "address",
          "name": "",
          "type": "address"
        }
      ],
      "stateMutability": "view",
      "type": "function"
    },
    {
      "inputs": [
        {
          "internalType": "uint256",
          "name": "",
          "type": "uint256"
        }
      ],
      "name": "candidates",
      "outputs": [
        {
          "internalType": "uint256",
          "name": "id",
          "type": "uint256"
        },
        {
          "internalType": "string",
          "name": "name",
          "type": "string"
        },
        {
          "internalType": "uint256",
          "name": "voteCount",
          "type": "uint256"
        }
      ],
      "stateMutability": "view",
      "type": "function"
    },
    {
      "inputs": [],
      "name": "candidatesCount",
      "outputs": [
        {
          "internalType": "uint256",
          "name": "",
          "type": "uint256"
        }
      ],
      "stateMutability": "view",
      "type": "function"
    },
    {
      "inputs": [],
      "name": "getCandidates",
      "outputs": [
        {
          "components": [
            {
              "internalType": "uint256",
              "name": "id",
              "type": "uint256"
            },
            {
              "internalType": "string",
              "name": "name",
              "type": "string"
            },
            {
              "internalType": "uint256",
              "name": "voteCount",
              "type": "uint256"
            }
          ],
          "internalType": "struct Evoting.Candidate[]",
          "name": "",
          "type": "tuple[]"
        }
      ],
      "stateMutability": "view",
      "type": "function"
    },
    {
      "inputs": [],
      "name": "getResults",
      "outputs": [
        {
          "components": [
            {
              "internalType": "uint256",
              "name": "id",
              "type": "uint256"
            },
            {
              "internalType": "string",
              "name": "name",
              "type": "string"
            },
            {
              "internalType": "uint256",
              "name": "voteCount",
              "type": "uint256"
            }
          ],
          "internalType": "struct Evoting.Candidate[]",
          "name": "",
          "type": "tuple[]"
        }
      ],
      "stateMutability": "view",
      "type": "function"
    },
    {
      "inputs": [
        {
          "internalType": "address",
          "name": "_voter",
          "type": "address"
        }
      ],
      "name": "registerVoter",
      "outputs": [],
      "stateMutability": "nonpayable",
      "type": "function"
    },
    {
      "inputs": [],
      "name": "totalVotes",
      "outputs": [
        {
          "internalType": "uint256",
          "name": "",
          "type": "uint256"
        }
      ],
      "stateMutability": "view",
      "type": "function"
    },
    {
      "inputs": [
        {
          "internalType": "uint256",
          "name": "_candidateId",
          "type": "uint256"
        }
      ],
      "name": "vote",
      "outputs": [],
      "stateMutability": "nonpayable",
      "type": "function"
    },
    {
      "inputs": [
        {
          "internalType": "address",
          "name": "",
          "type": "address"
        }
      ],
      "name": "voters",
      "outputs": [
        {
          "internalType": "bool",
          "name": "registered",
          "type": "bool"
        },
        {
          "internalType": "bool",
          "name": "voted",
          "type": "bool"
        },
        {
          "internalType": "address",
          "name": "delegate",
          "type": "address"
        },
        {
          "internalType": "uint256",
          "name": "vote",
          "type": "uint256"
        }
      ],
      "stateMutability": "view",
      "type": "function"
    }
  ],
  "bytecode": "0x608060405234801561001057600080fd5b50336000806101000a81548173ffffffffffffffffffffffffffffffffffffffff021916908373ffffffffffffffffffffffffffffffffffffffff16021790555061126b806100606000396000f3fe608060405234801561001057600080fd5b506004361061009e5760003560e01c806338db6dd31161006657806338db6dd31461014b578063462e91ec146101675780634717f97c14610183578063a3ec138d146101a1578063f851a440146101d45761009e565b80630121b93f146100a357806306a49fce146100bf5780630d15fd77146100dd5780632d35a8a2146100fb5780633477ee2e14610119575b600080fd5b6100bd60048036038101906100b89190610afe565b6101f2565b005b6100c7610397565b6040516100d49190610e09565b60405180910390f35b6100e5610558565b6040516100f29190610f10565b60405180910390f35b61010361055e565b6040516101109190610f10565b60405180910390f35b610133600480360381019061012e9190610afe565b610564565b60405161014293929190610f2b565b60405180910390f35b61016560048036038101906101609190610a94565b610616565b005b610181600480360381019061017c9190610abd565b610791565b005b61018b6108a1565b6040516101989190610e09565b60405180910390f35b6101bb60048036038101906101b69190610a94565b6108b0565b6040516101cb9493929190610e2b565b60405180910390f35b6101dc61091a565b6040516101e99190610dee565b60405180910390f35b6000600160003373ffffffffffffffffffffffffffffffffffffffff1673ffffffffffffffffffffffffffffffffffffffff16815260200190815260200160002090508060000160009054906101000a900460ff16610286576040517f08c379a000000000000000000000000000000000000000000000000000000000815260040161027d90610e90565b60405180910390fd5b8060000160019054906101000a900460ff16156102d8576040517f08c379a00000000000000000000000000000000000000000000000000000000081526004016102cf90610e70565b60405180910390fd5b6000821180156102ea57506003548211155b610329576040517f08c379a000000000000000000000000000000000000000000000000000000000815260040161032090610ef0565b60405180910390fd5b60018160000160016101000a81548160ff02191690831515021790555081816001018190555060026000838152602001908152602001600020600201600081548092919061037690611120565b91905055506004600081548092919061038e90611120565b91905055505050565b6060600060035467ffffffffffffffff8111156103dd577f4e487b7100000000000000000000000000000000000000000000000000000000600052604160045260246000fd5b60405190808252806020026020018201604052801561041657816020015b61040361093e565b8152602001906001900390816103fb5790505b5090506000600190505b6003548111610550576002600082815260200190815260200160002060405180606001604052908160008201548152602001600182018054610461906110ee565b80601f016020809104026020016040519081016040528092919081815260200182805461048d906110ee565b80156104da5780601f106104af576101008083540402835291602001916104da565b820191906000526020600020905b8154815290600101906020018083116104bd57829003601f168201915b50505050508152602001600282015481525050826001836104fb9190611030565b81518110610532577f4e487b7100000000000000000000000000000000000000000000000000000000600052603260045260246000fd5b6020026020010181905250808061054890611120565b915050610420565b508091505090565b60045481565b60035481565b600260205280600052604060002060009150905080600001549080600101805461058d906110ee565b80601f01602080910402602001604051908101604052809291908181526020018280546105b9906110ee565b80156106065780601f106105db57610100808354040283529160200191610606565b820191906000526020600020905b8154815290600101906020018083116105e957829003601f168201915b5050505050908060020154905083565b60008054906101000a900473ffffffffffffffffffffffffffffffffffffffff1673ffffffffffffffffffffffffffffffffffffffff163373ffffffffffffffffffffffffffffffffffffffff16146106a4576040517f08c379a000000000000000000000000000000000000000000000000000000000815260040161069b90610eb0565b60405180910390fd5b600160008273ffffffffffffffffffffffffffffffffffffffff1673ffffffffffffffffffffffffffffffffffffffff16815260200190815260200160002060000160009054906101000a900460ff1615610734576040517f08c379a000000000000000000000000000000000000000000000000000000000815260040161072b90610ed0565b60405180910390fd5b60018060008373ffffffffffffffffffffffffffffffffffffffff1673ffffffffffffffffffffffffffffffffffffffff16815260200190815260200160002060000160006101000a81548160ff02191690831515021790555050565b60008054906101000a900473ffffffffffffffffffffffffffffffffffffffff1673ffffffffffffffffffffffffffffffffffffffff163373ffffffffffffffffffffffffffffffffffffffff161461081f576040517f08c379a000000000000000000000000000000000000000000000000000000000815260040161081690610eb0565b60405180910390fd5b6003600081548092919061083290611120565b919050555060405180606001604052806003548152602001828152602001600081525060026000600354815260200190815260200160002060008201518160000155602082015181600101908051906020019061089092919061095f565b506040820151816002015590505050565b60606108ab610397565b905090565b60016020528060005260406000206000915090508060000160009054906101000a900460ff16908060000160019054906101000a900460ff16908060000160029054906101000a900473ffffffffffffffffffffffffffffffffffffffff16908060010154905084565b60008054906101000a900473ffffffffffffffffffffffffffffffffffffffff1681565b60405180606001604052806000815260200160608152602001600081525090565b82805461096b906110ee565b90600052602060002090601f01602090048101928261098d57600085556109d4565b82601f106109a657805160ff19168380011785556109d4565b828001600101855582156109d4579182015b828111156109d35782518255916020019190600101906109b8565b5b5090506109e191906109e5565b5090565b5b808211156109fe5760008160009055506001016109e6565b5090565b6000610a15610a1084610f9a565b610f69565b905082815260208101848484011115610a2d57600080fd5b610a388482856110ac565b509392505050565b600081359050610a4f81611207565b92915050565b600082601f830112610a6657600080fd5b8135610a76848260208601610a02565b91505092915050565b600081359050610a8e8161121e565b92915050565b600060208284031215610aa657600080fd5b6000610ab484828501610a40565b91505092915050565b600060208284031215610acf57600080fd5b600082013567ffffffffffffffff811115610ae957600080fd5b610af584828501610a55565b91505092915050565b600060208284031215610b1057600080fd5b6000610b1e84828501610a7f565b91505092915050565b6000610b338383610d80565b905092915050565b610b4481611064565b82525050565b6000610b5582610fda565b610b5f8185610ffd565b935083602082028501610b7185610fca565b8060005b85811015610bad5784840389528151610b8e8582610b27565b9450610b9983610ff0565b925060208a01995050600181019050610b75565b50829750879550505050505092915050565b610bc881611076565b82525050565b6000610bd982610fe5565b610be3818561100e565b9350610bf38185602086016110bb565b610bfc816111f6565b840191505092915050565b6000610c1282610fe5565b610c1c818561101f565b9350610c2c8185602086016110bb565b610c35816111f6565b840191505092915050565b6000610c4d60178361101f565b91507f596f75206861766520616c726561647920766f7465642e0000000000000000006000830152602082019050919050565b6000610c8d601f8361101f565b91507f596f7520617265206e6f74207265676973746572656420746f20766f74652e006000830152602082019050919050565b6000610ccd60198361101f565b91507f4f6e6c792061646d696e2063616e2063616c6c20746869732e000000000000006000830152602082019050919050565b6000610d0d601c8361101f565b91507f566f74657220697320616c726561647920726567697374657265642e000000006000830152602082019050919050565b6000610d4d60158361101f565b91507f496e76616c69642063616e6469646174652049442e00000000000000000000006000830152602082019050919050565b6000606083016000830151610d986000860182610dd0565b5060208301518482036020860152610db08282610bce565b9150506040830151610dc56040860182610dd0565b508091505092915050565b610dd9816110a2565b82525050565b610de8816110a2565b82525050565b6000602082019050610e036000830184610b3b565b92915050565b60006020820190508181036000830152610e238184610b4a565b905092915050565b6000608082019050610e406000830187610bbf565b610e4d6020830186610bbf565b610e5a6040830185610b3b565b610e676060830184610ddf565b95945050505050565b60006020820190508181036000830152610e8981610c40565b9050919050565b60006020820190508181036000830152610ea981610c80565b9050919050565b60006020820190508181036000830152610ec981610cc0565b9050919050565b60006020820190508181036000830152610ee981610d00565b9050919050565b60006020820190508181036000830152610f0981610d40565b9050919050565b6000602082019050610f256000830184610ddf565b92915050565b6000606082019050610f406000830186610ddf565b8181036020830152610f528185610c07565b9050610f616040830184610ddf565b949350505050565b6000604051905081810181811067ffffffffffffffff82111715610f9057610f8f6111c7565b5b8060405250919050565b600067ffffffffffffffff821115610fb557610fb46111c7565b5b601f19601f8301169050602081019050919050565b6000819050602082019050919050565b600081519050919050565b600081519050919050565b6000602082019050919050565b600082825260208201905092915050565b600082825260208201905092915050565b600082825260208201905092915050565b600061103b826110a2565b9150611046836110a2565b92508282101561105957611058611169565b5b828203905092915050565b600061106f82611082565b9050919050565b60008115159050919050565b600073ffffffffffffffffffffffffffffffffffffffff82169050919050565b6000819050919050565b82818337600083830152505050565b60005b838110156110d95780820151818401526020810190506110be565b838111156110e8576000848401525b50505050565b6000600282049050600182168061110657607f821691505b6020821081141561111a57611119611198565b5b50919050565b600061112b826110a2565b91507fffffffffffffffffffffffffffffffffffffffffffffffffffffffffffffffff82141561115e5761115d611169565b5b600182019050919050565b7f4e487b7100000000000000000000000000000000000000000000000000000000600052601160045260246000fd5b7f4e487b7100000000000000000000000000000000000000000000000000000000600052602260045260246000fd5b7f4e487b7100000000000000000000000000000000000000000000000000000000600052604160045260246000fd5b6000601f19601f8301169050919050565b61121081611064565b811461121b57600080fd5b50565b611227816110a2565b811461123257600080fd5b5056fea26469706673582212207d3520d3300e1516f974c4f5b865eeb038b122e5b8fb7fd41b97840ae0ab5f6664736f6c63430008000033",
  "linkReferences": {},
  "deployedLinkReferences": {}
}